:1000000019C028C027C026C025C024C023C022C0D4
:1000100021C015C11FC01EC01DC01CC01BC01AC0FE
:1000200019C018C017C016C015C014C013C012C024
:1000300011C010C011241FBECFEFCDBFDFE3DEBF64
:100040002FE3A0E8BFE301C01D92A039B207E1F79A
:100050004CD107C2D5CFE0E0F4E080E8858387E8A3
:1000600093E10197F1F700C0000082E0858399EEEB
:100070009A95F1F7000086832FE98DEF92E02150E9
:1000800080409040E1F700C000000895E0E0F4E017
:1000900088E08583818385E88A95F1F700000895DB
:1000A00098E090930604EEEEF1E03197F1F700C08E
:1000B0000000000000000000000000000000000040
:1000C0000000000000000000000048E0282F30E0A1
:1000D00080FF55C04093050435952795822FEEEE9D
:1000E000F1E03197F1F700C00000000000000000CF
:1000F000000000000000915049F788E0662309F4F1
:1001000041C0809305048EEE91E00197F1F700C0A5
:1001100000000000000000000000000000000000DF
:100120000000000000000000000088E0809305044B
:10013000EEEEF1E03197F1F700C0000000000000A2
:1001400000000000000000000000000000000000AF
:1001500000000000809305048EEE91E00197F1F716
:1001600000C00000000000000000000000000000CF
:10017000000000000000000000000000089540930F
:100180000604AACF80930604EEEEF1E03197F1F772
:10019000BECF1F93CF93DF93C0E0D4E018E0198364
:1001A0001D831E8300000000000000008B89877FF4
:1001B0008B8B1A838BE49DE10197F1F700C000005F
:1001C00065DF60E085E56CDF61E080EE69DF61E0BE
:1001D00080E266DF61E087E663DF60E08FE660DF94
:1001E00060E082E75DDF60E080E55ADF60E08DE49B
:1001F00057DF60E086E554DF60E08EE451DF46DFE4
:100200001A838B89877F8B8B8BE49DE10197F1F7B4
:1002100000C000003BDF60E085E542DF37DF1A8386
:100220008B89877F8B8B8BE49DE10197F1F700C071
:10023000000080E88E83DF91CF911F9108951F9277
:100240000F920FB60F9211242F933F934F935F930A
:100250006F938F939F93AF93BF938091863F9091BD
:10026000873FA091883FB091893F4091843F509152
:10027000853F9A01205D3C4F283E63E0360728F019
:10028000285E33400196A11DB11D2093843F309319
:10029000853F8093863F9093873FA093883FB0939C
:1002A000893F8091803F9091813FA091823FB091A2
:1002B000833F0196A11DB11D8093803F9093813FA4
:1002C000A093823FB093833F82E080930B0ABF915B
:1002D000AF919F918F916F915F914F913F912F912E
:1002E0000F900FBE0F901F90189588ED90E084BF7F
:1002F0009093610083E5809302068DE0809305066C
:1003000080E28093030681E0809300068093030AD5
:100310009EEF9093260A9093270A9BE09093000A01
:100320008093020280910A0A826080930A0A78947C
:1003300084E0809302048091120488608093120408
:1003400088E08093020480E4809301048093050494
:1003500082E08093010480E8809301047CDEF894BD
:1003600018DF7894D3E0C0E400E010E4E12C88E0EA
:10037000F82EDD24D3948091080482FF4DC0809133
:100380008F3F8823C1F010928F3FC09306042FEF58
:1003900084E39CE0215080409040E1F700C00000E1
:1003A000C093050458DEF894F4DE789425E82A9585
:1003B000F1F70000E0CF80918D3F90918E3F8F3F0D
:1003C0002FE3920728F4019680938D3F90938E3F00
:1003D00010928B3F10928C3F80918B3F90918C3F7D
:1003E0008F3F974041F4E0928B3FF0928C3FD09248
:1003F0008F3F10928A3F80918A3F20918D3F3091AC
:100400008E3F2F3F3F43D1F400938D3F10938E3F9B
:100410008F5F80938A3FCACF80918B3F90918C3FB2
:100420008F3F27E0920728F4019680938B3F9093AB
:100430008C3F10928D3F10928E3FCECF823009F0CC
:10044000B5CFD0938A3FC09306042FEF84E39CE09E
:10045000215080409040E1F700C00000C0930504A7
:06046000A5CFF894FFCFC8
:00000001FF
